:020000042000DA
:1000000000BF214F214878602148786070474FF049
:10001000004038617047F96811F4803FFBD14FF020
:10002000F001F9601B4A4FEAC00141EA020139615F
:1000300041F480313961F86810F4803FFBD100F061
:10004000F0004FF0000139617047F96811F4803F0A
:10005000FBD1114939614FF0F001F9600F4C4FF0BD
:100060000002A3588350F96811F4803FFBD111F0CE
:10007000F00104D102F10402B2F5804FF1D3084639
:100080004FF0000139617047003C02402301674591
:10009000AB89EFCD0202000001020000A0000020A9
:0400000520000000D7
:00000001FF
