:020000042000DA
:1000000000BF1C4F1C4878601C48786070474FF058
:10001000800139617047396941F0020139617861C5
:1000200041F040013961FA6812F0010FFBD121F073
:100030004201396102F01400FA607047396941F0F9
:10004000010139610E4C4FF00002A35A8352F96846
:1000500011F0010FFBD1F96011F0140104D102F18C
:100060000202B2F5806FF0D33A6922F001023A61E0
:10007000084670470020024023016745AB89EFCD59
:0400800084000020D8
:0400000520000000D7
:00000001FF
