:020000042000DA
:1000000000BF1C4F1C48F8601C48F8601C48386151
:100010001C48386170474FF00700786070474FF414
:1000200003717960B96911F0010FFBD14FF0000144
:100030000160B96911F0010FFBD101F470604FF05C
:10004000040179607047B96911F0010FFBD10E4CC2
:100050004FF00002A3588350B96911F0010FFBD192
:1000600011F4706104D102F10402B2F5807FF1D382
:1000700008467047003C0240EFCDAB8905040302FF
:0C008000BFAE9D8C161514138C000020E0
:0400000520000000D7
:00000001FF
